S22400E0000030002001E4000069E4000069E4000069E4000069E4000069E400000000000045
S22400E02000000000000000000000000041A4010069E400000000000081A60100E9A60100F0
S22400E040252C0200332C0200412C02004F2C02005D2C02006B2C0200792C0200872C02009B
S22400E060952C0200A32C0200B12C0200BF2C0200CD2C0200DB2C0200E92C0200F72C0200FB
S22400E080052D020069E4000069E4000069E4000069E4000069E4000069E4000069E400002C
S22400E0A069E4000069E40000BDE30100CBE3010069E4000069E4000069E4000069E400003D
S22400E0C069E4000069E4000069E4000069E4000069E4000069E4000069E4000069E40000D3
S22400E0E069E4000069E4000069E4000069E4000069E4000069E4000069E4000069E40000B3
S22400E10069E4000069E4000069E4000069E4000069E4000069E4000069E4000069E4000092
S22400E12069E4000069E4000069E4000069E4000069E4000069E4000069E4000069E4000072
S22400E14069E4000069E4000069E4000069E4000069E40000D105020069E4000069E40000C7
S22400E16069E4000069E4000069E4000069E4000069E4000069E40000A5060200B306020064
S22400E180C1060200CF060200DD06020069E4000069E40000EB060200F906020069E400001A
S22400E1A00707020069E4000069E4000069E4000069E4000069E4000069E4000069E400002F
S22400E1C069E4000069E4000069E4000069E4000069E4000069E4000069E4000069E40000D2
S22400E1E069E4000069E4000069E4000069E4000069E4000069E4000069E4000069E40000B2
S22400E20069E4000069E4000069E4000069E4000069E4000069E4000069E4000069E4000091
S22400E22069E4000069E4000069E4000069E4000069E4000069E4000069E4000069E4000071
S22400E24069E4000069E4000069E4000069E4000069E4000069E4000069E4000069E4000051
S22400E26069E4000069E4000069E4000069E4000069E4000069E4000069E4000069E4000031
S22400E28069E4000069E4000069E4000069E4000069E4000069E4000069E4000069E4000011
S22400E2A069E4000069E4000069E4000069E4000069E4000069E4000069E4000069E40000F1
S22400E2C069E4000069E4000069E4000069E4000069E4000069E4000069E4000069E40000D1
S22400E2E069E4000069E4000069E4000069E4000069E4000069E4000069E4000069E40000B1
S22400E30069E4000069E4000069E4000069E4000069E4000069E4000069E4000069E4000090
S22400E32069E4000069E4000069E4000069E4000069E4000069E4000069E4000069E4000070
S22400E34069E4000069E4000069E4000069E4000069E4000069E4000069E4000069E4000050
S22400E36069E4000069E4000069E4000069E4000069E4000069E4000069E4000069E4000030
S22400E38069E4000069E4000069E4000069E4000069E4000069E4000069E4000069E4000010
S22400E3A069E4000069E4000069E4000069E4000069E4000069E4000069E4000069E40000F0
S22400E3C069E4000069E4000069E4000069E4000069E4000069E4000069E4000069E40000D0
S22400E3E069E4000069E4000069E4000069E4000069E4000069E4000069E40000FFFFFFFF01
S22400E40072B64FF000014FF000024FF000034FF000044FF000054FF000064FF00007B846FC
S22400E420B946BA46BB46BC460A490B4A521A013A05DD0020042308601944043AFBDA074836
S22400E4408546074880470748804762B600F026F9FEE7000000C0FF1F003000200030002036
S22400E460796C02004D6B0200FFF7FEBF80B500AF0023084A0121084817F0F2FD0021002041
S22400E48017F010FE054917200EF012FE0123184680BD00BFC4E8FF1F08100020D80C00204B
S22400E4A080B586B002AF78600023FB7307F002F901230022502100200BF0D2FA294B1B684B
S22400E4C007F10F014FF0FF3218460EF03DF8FB7B012BEBD1244B1B6818460CF093FD214B88
S22400E4E01B6818460EF014FA00230193042300930023C8221D491E480CF04EFC0346DAB2C5
S22400E5001C4B1A7000230193032300930023C82219491A480CF040FC0346DAB2154B1A70CD
S22400E52000230193022300930023C822144915480CF032FC0346DAB20E4B1A700023019307
S22400E540012300930023C8220F4910480CF024FC0346DAB2074B1A700D4B1B6818460CF040
S22400E56051FDA3E7C8E8FF1FD4E8FF1F307A0200EDE50000CCE8FF1F3C7A020017E6000011
S22400E580487A020041E60000507A020077E60000D0E8FF1F80B584B000AF78600123FB730A
S22400E5A00BF09FF90AF028FA06F0A6FC07F0F2FE00F0F4F800F0A4F800F0BEF907F058F9D1
S22400E5C004F090FD074805F0C9F8074B186807F10F01002300220DF09FFD05200BF040FD9B
S22400E5E0FBE700BF387E0200C8E8FF1F80B584B000AF78600CF038FF0346FB6002F098FDA1
S22400E60003F00AFD01F0A4FE07F10C030A2118460CF086FDF2E780B584B000AF78600CF094
S22400E62023FF0346FB600BF069F90BF0F5FA0AF013FB07F10C03052118460CF071FDF2E7F2
S22400E64080B584B000AF78600CF00EFF0346FB6007F0BAFE06F078FC07F08CF803F02EFF64
S22400E66005F0F2F907F094FA07F10C03052118460CF056FDECE780B584B000AF78600CF097
S22400E680F3FE0346FB6000F0CDFA00F06BF807F10C03052118460CF043FDF4E780B582B0CD
S22400E6A002AFFFF7E3FE0022012101200DF0AAFC02460C4B1A600C4B0193002300930023E8
S22400E6C0C8220A490A480CF067FB0A4B0193002300930023C822084908480CF05DFB0CF0AB
S22400E6E0CDFDFEE7C8E8FF1FD4E8FF1F587A020095E50000D0E8FF1F6C7A0200A1E400002D
S22400E70080B582B000AF0023FB80124A124901200FF076F90346FB80FB88002B01D0FB8834
S22400E72013E003211B2010F0F9F801210B4818F0CFFA0346FB800A4818F07BFF084818F05B
S22400E74020FF072018F0F0FBFB8818460837BD4680BD00BFA082020050F2FF1F74820200E0
S22400E7600000002080B483B000AF00BF0C37BD465DF8047B704780B500AF012018F0D4FBF2
S22400E780FEE780B582B000AF8823FB71FB1D00221946002018F078FFFEE7000080B582B0DE
S22400E7A000AF0123FB714FF4803106480EF09FFC402105480EF09BFCFB7918460837BD46E3
S22400E7C080BD00BF00F00F4080F00F4080B582B000AF0346FB71FB79002B05D04FF4006157
S22400E7E006480EF084FC04E04FF4006103480EF08BFC00BF0837BD4680BD00BF00F10F40B3
S22400E80080B582B000AF0346FB71FB79002B05D04FF4806106480EF06AFC04E04FF48061D6
S22400E82003480EF071FC00BF0837BD4680BD00BF00F10F4080B500AF0020FFF7C7FF0220FE
S22400E8400BF00EFC0120FFF7C1FF00BF80BD80B500AF0020FFF7D4FF02200BF001FC0120D3
S22400E860FFF7CEFF00BF80BD80B582B000AF0023FB710020FFF7AAFF02200BF0F1FB012046
S22400E880FFF7A4FF0A4A0B4900200FF0B9F80346FB7101230122012100200FF003F9032105
S22400E8A01A2010F03BF8FB7918460837BD4680BDC08202008CF2FF1F80B500AF0020FFF7BB
S22400E8C09FFF02200BF0CCFB0120FFF799FF0123184680BD80B586B002AF78603960002294
S22400E8E0002100200FF0D2FA0A23009308233A68796800200FF034FA0346FB73FB7B1846C1
S22400E9001037BD4680BD80B586B002AF786039600122002100200FF0B9FA0A2300930823DD
S22400E9203A68796800200FF01BFA0346FB73FB7B18461037BD4680BD80B582B000AF0123CF
S22400E940FB710A4BD3F8EC309847084BD3F8F0319847064BD3F80C329847044800F008F898
S22400E960FB7918460837BD4680BD00BF2800002080B584B000AF78600023FB730023BB815A
S22400E9800023FB7207F10B031A462B49786800F055F80346FB73FB7BDBB2002B02D1FB7BBD
S22400E9A0DBB244E0FB7ADBB203F08003802B3CD007F10C031A4641F22A01786800F0EAF8FB
S22400E9C00346DBB2FB73BB899BB21BB223F00F031BB243F008031BB29BB2BB81BB899BB279
S22400E9E01A462A21786800F089F84BF23333BB81BB899BB21A462221786800F07FF8BB8978
S22400EA009BB21A462421786800F078F8FB7ADBB25BB203F06F035BB263F07F035BB2DBB2CF
S22400EA201A460549786800F036F8FB7BDBB218461037BD4680BD00BF0800002080B586B0EB
S22400EA4000AFF860B9607A600023FB750023BB82BB681B8807F114021946F86800F09AF8AF
S22400EA600346FB75FB7D012B0DD1BB685A88BB8A13409BB21A46BB681B7942FA03F3DAB297
S22400EA807B681A7002E07B6800221A70FB7D18461837BD4680BD80B586B000AFF860B960A3
S22400EAA01346FB710023FB750023BB82BB681B8807F114021946F86800F06CF80346FB75F9
S22400EAC0BB685A88BB8A13409BB21AB2FB79B96809798B401BB213431BB29BB2BB82BB68FC
S22400EAE01B88BA8A1946F86800F008F80346FB75FB7D18461837BD4680BD000080B584B0F4
S22400EB0000AF78600B467B8013463B800023FB811F4BD3F84C327A88D1B23A8878689847B1
S22400EB201B4BD3F814329847194BD3F8543278689847174BD3F8143298477B6893F8953081
S22400EB401B021AB27B6893F894301BB213431BB2FB810F4BD3F85032FA89114678689847E9
S22400EB600B4BD3F818329847094BD3F8403278689847074BD3F8143298477B6893F8A23074
S22400EB80C3F30303DBB218461037BD4680BD00BF2800002080B586B000AFF8600B467A609E
S22400EBA07B810023FB750023BB821D4BD3F848327A897989F8689847194BD3F8143298471C
S22400EBC0174BD3F84032F8689847154BD3F814329847FB6893F8EA3003F01003DBB2002B3C
S22400EBE017D0FA6892F8EA306FF3041382F8EA30FB6893F88B301B021AB2FB6893F88A30DC
S22400EC001BB213431BB2BB827B68BA8A1A800123FB75FB7D9BB218461837BD4680BD00BFFC
S22400EC202800002080B500AF024800F005F800BF80BD00BF2800002080B584B000AF786079
S22400EC400023FB737B68B3F8FA30002B04D07B6893F8FC30642B14D17B684FF47A72A3F8AC
S22400EC60FA207B68002283F8FC207B6800225A707B68002283F8F4207B68D3F800319847B8
S22400EC8029E07B685B7803F00103DBB2002B03D1786800F017FD02E0786800F097FF0BF006
S22400ECA095FC786800F01CF8786800F06FF80BF0BBFC7B6893F8F43003F00103DBB2002BB0
S22400ECC006D07B685B780133DAB27B685A7002E07B6800225A70FB7B18461037BD4680BD2A
S22400ECE080B485B000AF78600023FB737B6893F8EA3003F00203DBB2002B40D07A6892F8DA
S22400ED00EA306FF3410382F8EA307B6893F87330C3F30503DBB21B021AB27B6893F8723045
S22400ED201BB213431BB29AB27B68A3F8F6207B6893F87530C3F30503DBB21B021AB27B68D4
S22400ED4093F874301BB213431BB29AB27B68A3F8F8207B6893F8733023F03F03DBB2402B4F
S22400ED6007D17A6892F8F43043F0010382F8F43003E07B68002283F8F4200123FB73FB7BD2
S22400ED8018461437BD465DF8047B704780B485B000AF78600023FB737B6893F8EB3003F03A
S22400EDA00203DBB2002B00F089807A6892F8EB306FF3410382F8EB307B6893F8B430C3F3CE
S22400EDC08003D9B27A6892F8F43061F3410382F8F4307B6893F8B430C3F34003D9B27A68A2
S22400EDE092F8F43061F3820382F8F4307B6893F8B430C3F30003D9B27A6892F8F43061F36F
S22400EE00C30382F8F4307B6893F8B430C3F30013D9B27A6892F8F43061F3041382F8F4304A
S22400EE207B6893F8B430C3F3C003D9B27A6892F8F43061F3451382F8F4307B6893F8B2304D
S22400EE4003F07F03002B14DD7A6892F8F43043F0400382F8F4307B68B3F8FA30002B0FD0B6
S22400EE607B68B3F8FA30013B9AB27B68A3F8FA2006E07A6892F8F4306FF3861382F8F430A6
S22400EE807B6893F8B23023F07F03DBB2002B06D17B6893F8B33003F0F103002B07DD7A68D0
S22400EEA092F8F43043F0800382F8F43006E07A6892F8F4306FF3C71382F8F430FB7B184627
S22400EEC01437BD465DF8047B7047000080B485B000AF0346FB714FF6FF73FB81FB79032BB2
S22400EEE000F2908001A252F823F000BFFDEE00003FEF000081EF0000C3EF0000454B93F8F6
S22400EF00F43003F00203DBB2002B0FD1414B93F8F43003F04003DBB2002B07D13D4B93F824
S22400EF20F43003F02003DBB2002B03D04FF6FF73FB8168E0374BB3F8F630FB8163E0354BFA
S22400EF4093F8F43003F00203DBB2002B0FD1314B93F8F43003F04003DBB2002B07D12D4B04
S22400EF6093F8F43003F02003DBB2002B03D04FF6FF73FB8147E0274BB3F8F830FB8142E0FF
S22400EF80244B93F8F83103F00203DBB2002B0FD1204B93F8F83103F04003DBB2002B07D1D4
S22400EFA01C4B93F8F83103F02003DBB2002B03D04FF6FF73FB8126E0164BB3F8FA31FB81A4
S22400EFC021E0144B93F8F83103F00203DBB2002B0FD1104B93F8F83103F04003DBB2002B8B
S22400EFE007D10C4B93F8F83103F02003DBB2002B03D04FF6FF73FB8105E0064BB3F8FC3147
S22400F000FB8100E000BFFB8918461437BD465DF8047B70472800002080B485B000AF7860DD
S22400F02039603B68BB60BB689B79C3F38113DBB2022B00F3B3807B6893F8FE30C3F30503B9
S22400F040DBB20133DBB203F03F03D9B27A6892F8FE3061F3050382F8FE30BB689B79C3F312
S22400F0600503DAB27B6893F8FE30C3F30503DBB29A4275D17B68002283F8FD20BB689B791A
S22400F080C3F38113DBB2012B26D0022B46D0002B00D076E00023FB730DE0FB7BFA7B3968D4
S22400F0A00A441278D1B27A6813440A4683F86A20FB7B0133FB73FB7B072BEED97A6892F86F
S22400F0C0EA3043F0010382F8EA30B24B1B8801339AB2B04B1A8054E00023FB730DE0FB7B69
S22400F0E0FA7B39680A441278D1B27A6813440A4683F87220FB7B0133FB73FB7B072BEED97D
S22400F1007A6892F8EA3043F0020382F8EA30A14B5B8801339AB29F4B5A8032E00023FB73E2
S22400F1200DE0FB7BFA7B39680A441278D1B27A6813440A4683F87A20FB7B0133FB73FB7BCA
S22400F140072BEED97A6892F8EA3043F0040382F8EA30904B9B8801339AB28E4B9A8010E0FC
S22400F1607B6893F8FD300133DAB27B6883F8FD207B6893F8FD30642B03D97B68642283F8CA
S22400F180FD20BB689B79C3F30503D9B27A6892F8FE3061F3050382F8FE308AE2BB689B798C
S22400F1A0C3F30503DBB2023B3C2B00F2708201A252F823F0F5F200008FF6000041F30000D7
S22400F1C08FF600008FF600008FF600008FF600008FF600008FF600008FF600008FF6000002
S22400F1E08FF60000DFF300008FF600008FF600002BF400008FF600008FF600008FF60000FB
S22400F2008FF600008FF6000077F400008FF60000C3F400008FF600000FF500008FF600002A
S22400F2208FF600008FF600008FF600008FF600008FF600008FF600008FF600008FF60000A1
S22400F2408FF600008FF600008FF600008DF300008FF600008FF600008FF600003FF60000D6
S22400F260A9F200008FF600008FF600008FF600008FF600005BF500008FF600008FF6000080
S22400F2808FF600008FF600008FF600008FF600008FF600008FF600008FF600008FF6000041
S22400F2A0A7F50000F3F500000023FB730DE0FB7BFA7B39680A441278D1B27A6813440A46D7
S22400F2C083F88220FB7B0133FB73FB7B072BEED97A6892F8EA3043F0080382F8EA302D4BB5
S22400F2E0DB8801339AB22B4BDA807B68002283F8FC20DEE10023FB730DE0FB7BFA7B3968F1
S22400F3000A441278D1B27A6813440A4683F88A20FB7B0133FB73FB7B072BEED97A6892F8EC
S22400F320EA3043F0100382F8EA301A4B1B8901339AB2184B1A817B68002283F8FC20B8E118
S22400F3400023FB730DE0FB7BFA7B39680A441278D1B27A6813440A4683F89220FB7B0133E3
S22400F360FB73FB7B072BEED97A6892F8EA3043F0200382F8EA30074B5B8901339AB2054B35
S22400F3805A817B68002283F8FC2092E10023FB7310E000BFD8E8FF1FFB7BFA7B39680A4486
S22400F3A01278D1B27A6813440A4683F89A20FB7B0133FB73FB7B072BEED97A6892F8EA3070
S22400F3C043F0400382F8EA309E4B9B8901339AB29C4B9A817B68002283F8FC2069E1002386
S22400F3E0FB730DE0FB7BFA7B39680A441278D1B27A6813440A4683F8A220FB7B0133FB73E8
S22400F400FB7B072BEED97A6892F8EA3043F0800382F8EA308B4BDB8901339AB2894BDA81BF
S22400F4207B68002283F8FC2043E10023FB730DE0FB7BFA7B39680A441278D1B27A68134469
S22400F4400A4683F8AA20FB7B0133FB73FB7B072BEED97A6892F8EB3043F0010382F8EB3038
S22400F460784B1B8A01339AB2764B1A827B68002283F8FC201DE10023FB730DE0FB7BFA7B3F
S22400F48039680A441278D1B27A6813440A4683F8B220FB7B0133FB73FB7B072BEED97A682C
S22400F4A092F8EB3043F0020382F8EB30654B5B8A01339AB2634B5A827B68002283F8FC209A
S22400F4C0F7E00023FB730DE0FB7BFA7B39680A441278D1B27A6813440A4683F8BA20FB7B97
S22400F4E00133FB73FB7B072BEED97A6892F8EB3043F0040382F8EB30524B9B8A01339AB25E
S22400F500504B9A827B68002283F8FC20D1E00023FB730DE0FB7BFA7B39680A441278D1B27D
S22400F5207A6813440A4683F8C220FB7B0133FB73FB7B072BEED97A6892F8EB3043F0080394
S22400F54082F8EB303F4BDB8A01339AB23D4BDA827B68002283F8FC20ABE00023FB730DE019
S22400F560FB7BFA7B39680A441278D1B27A6813440A4683F8CA20FB7B0133FB73FB7B072BF1
S22400F580EED97A6892F8EB3043F0100382F8EB302C4B1B8B01339AB22A4B1A837B68002289
S22400F5A083F8FC2085E00023FB730DE0FB7BFA7B39680A441278D1B27A6813440A4683F8E1
S22400F5C0D220FB7B0133FB73FB7B072BEED97A6892F8EB3043F0200382F8EB30194B5B8BF1
S22400F5E001339AB2174B5A837B68002283F8FC205FE00023FB730DE0FB7BFA7B39680A4414
S22400F6001278D1B27A6813440A4683F8DA20FB7B0133FB73FB7B072BEED97A6892F8EB30CC
S22400F62043F0400382F8EB30064B9B8B01339AB2044B9A837B68002283F8FC2039E000237F
S22400F640FB730FE0D8E8FF1FFB7BFA7B39680A441278D1B27A6813440A4683F8E220FB7B07
S22400F6600133FB73FB7B072BEED97A6892F8EB3043F0800382F8EB30114BDB8B01339AB260
S22400F6800F4BDA837B68002283F8FC2011E07B6893F8FC300133DAB27B6883F8FC207B686A
S22400F6A093F8FC30642B03D97B68642283F8FC2000BF012318461437BD465DF8047B704709
S22400F6C0D8E8FF1F80B584B000AF78607B6800229A707A68D3786FF34703D3707B68002227
S22400F6E09A717B680022DA717A68D3786FF30003D3707B6827225A717B6810221A717A685C
S22400F700137A012161F3871313727A68137A132161F3050313727B680233184600F0C4FB19
S22400F72003461A467B685A727B68D3F8F0307A68023207F108011046984707F108031946F0
S22400F7407868FFF769FC012318461037BD4680BD80B584B000AF78607B6800229A727A687D
S22400F760D37A6FF34703D3727B6800229A737B680022DA737A68D37A6FF30003D3727B6826
S22400F78027225A737B6810221A737A68137C012161F3871313747A68137C142161F30503A2
S22400F7A013747B680A33184600F07EFB03461A467B685A747B68D3F8F0307A680A3207F198
S22400F7C008011046984707F1080319467868FFF723FC012318461037BD4680BD80B584B01D
S22400F7E000AF78607B6800229A747A68D37C6FF34703D3747B6800229A757B680022DA75DE
S22400F8007A68D37C6FF30003D3747B6827225A757B6810221A757A68137E6FF3871313766F
S22400F8207A68137E152161F3050313767B681233184600F039FB03461A467B685A767B684C
S22400F840D3F8F0307A68123207F108011046984707F1080319467868FFF7DEFB01231846C9
S22400F8601037BD4680BD80B584B000AF78600B467B8013463B807B881B0A9BB2DAB27B68C8
S22400F880DA767B88DAB27B689A763B881B0A9BB2DAB27B685A773B88DAB27B681A777B6876
S22400F8A000229A777B680022DA777A6892F8203043F0C00382F820307A6892F82030012160
S22400F8C061F3050382F820307B681A33184600F0EBFA03461A467B6883F821207B68D3F8A4
S22400F8E0F0307A681A3207F108011046984707F1080319467868FFF78FFB012318461037F4
S22400F900BD4680BD80B586B000AF78600B46FB7013463B80FB781B1103F00302FB785B106B
S22400F92003F007033049D200134431F81330FB827B68002283F822207A6892F823306FF357
S22400F940871382F82330FB7803F03F03D9B27A6892F8233061F3050382F823303B881B0A38
S22400F9609BB2DAB27B6883F827203B88DAB27B6883F82620FB8A1B0A9BB2DAB27B6883F830
S22400F9802520FB8ADAB27B6883F824207A6892F8283043F0C00382F828307A6892F828301A
S22400F9A0032161F3050382F828307B682233184600F07AFA03461A467B6883F829207B68C3
S22400F9C0D3F8F0307A68223207F10C011046984707F10C0319467868FFF71EFB01231846F0
S22400F9E01837BD4680BD00BF987A020080B586B000AF78600B467B807B88FB827B680022DD
S22400FA0083F82A207B68002283F82B20FB8A83F4915383F01403FB82FB8A1B0A9BB2DAB2E7
S22400FA207B6883F82D20FB8ADAB27B6883F82C20FB8ADB43FB82FB8A1B0A9BB2DAB27B68D5
S22400FA4083F82F20FB8ADAB27B6883F82E207A6892F8303043F0C00382F830307A6892F812
S22400FA603030052161F3050382F830307B682A33184600F019FA03461A467B6883F83120CC
S22400FA807B68D3F8F0307A682A3207F10C011046984707F10C0319467868FFF7BDFA012304
S22400FAA018461837BD4680BD80B584B000AF78607B68002283F832207B68002283F83320BF
S22400FAC07B68002283F834207B68002283F835207B68002283F836207B68002283F83720CB
S22400FAE07A6892F8383043F0C00382F838307A6892F838300F2161F3050382F838307B6830
S22400FB003233184600F0D0F903461A467B6883F839207B68D3F8F0307A68323207F10801EF
S22400FB201046984707F1080319467868FFF774FA012318461037BD4680BD80B584B000AFC4
S22400FB4078607B68002283F83A207B68002283F83B207B68002283F83E207B68002283F8B5
S22400FB603F207B68342283F83C207B68122283F83D207A6892F8403043F0C00382F8403066
S22400FB807A6892F84030102161F3050382F840307B683A33184600F087F903461A467B6863
S22400FBA083F841207B68D3F8F0307A683A3207F108011046984707F1080319467868FFF7DA
S22400FBC02BFA012318461037BD4680BD80B584B000AF78607B68002283F842207B6800221B
S22400FBE083F843207B68002283F844207B68002283F845207B68002283F846207B6800226E
S22400FC0083F847207A6892F8483043F0C00382F848307A6892F84830162161F3050382F840
S22400FC2048307B684233184600F03EF903461A467B6883F849207B68D3F8F0307A684232D6
S22400FC4007F108011046984707F1080319467868FFF7E2F9012318461037BD4680BD80B518
S22400FC6084B000AF78607B68002283F84A207B68002283F84B207B68002283F84C207B6820
S22400FC80002283F84D207B68002283F84E207B68002283F84F207A6892F8503043F0C00396
S22400FCA082F850307A6892F85030182161F3050382F850307B684A33184600F0F5F80346E6
S22400FCC01A467B6883F851207B68D3F8F0307A684A3207F108011046984707F1080319462C
S22400FCE07868FFF799F9012318461037BD4680BD80B584B000AF78607B68002283F85220AC
S22400FD007B68002283F853207B68002283F854207B68002283F855207B68002283F856200C
S22400FD207B68002283F857207A6892F8583043F0C00382F858307A6892F858301A2161F358
S22400FD40050382F858307B685233184600F0ACF803461A467B6883F859207B68D3F8F030EC
S22400FD607A68523207F108011046984707F1080319467868FFF750F9012318461037BD4695
S22400FD8080BD80B584B000AF78607B68002283F85A207B68002283F85B207B68002283F8BC
S22400FDA05C207B68002283F85D207B68002283F85E207B68002283F85F207A6892F86030CC
S22400FDC043F0C00382F860307A6892F860302F2161F3050382F860307B685A33184600F0AE
S22400FDE063F803461A467B6883F861207B68D3F8F0307A685A3207F108011046984707F1B1
S22400FE00080319467868FFF707F9012318461037BD4680BD80B584B000AF78607B6800229F
S22400FE2083F862207B68002283F863207B68002283F864207B68002283F865207B680022AF
S22400FE4083F866207B68002283F867207A6892F8683043F0C00382F868307A6892F8683085
S22400FE60312161F3050382F868307B686233184600F01AF803461A467B6883F869207B6872
S22400FE80D3F8F0307A68623207F108011046984707F1080319467868FFF7BEF80123184656
S22400FEA01037BD4680BD000080B485B000AF7860FF23FB730023BB730DE0BB7B7A68134489
S22400FEC01A78FB7B53407B737B7B094AD35CFB73BB7B0133BB73BB7B062BEED9FB7BDB4354
S22400FEE0FB73FB7B18461437BD465DF8047B7047D87A020080B483B000AF0023FB8004E0F6
S22400FF00FB889BB201339BB2FB80FB889BB2B3F58E5FF5D9012318460C37BD465DF8047B41
S22400FF20704780B483B000AF0023FB8004E0FB889BB201339BB2FB80FB889BB2B3F5066FB4
S22400FF40F5D9012318460C37BD465DF8047B704780B483B000AF0023FB8004E0FB889BB213
S22400FF6001339BB2FB80FB889BB241F2F6029342F4D9012318460C37BD465DF8047B704790
S22400FF8080B483B000AF0023FB8004E0FB889BB201339BB2FB80FB889BB240F2F2729342BD
S22400FFA0F4D9012318460C37BD465DF8047B704780B483B000AF0023FB8004E0FB889BB2B4
S22400FFC001339BB2FB80FB889BB2B3F5AD7FF5D9012318460C37BD465DF8047B704780B427
S22400FFE083B000AF0023FB8004E0FB889BB201339BB2FB80FB889BB241F25B229342F4D9AA
S224010000012318460C37BD465DF8047B704780B483B000AF0023FB8004E0FB889BB20133EB
S2240100209BB2FB80FB889BB240F6A6029342F4D9012318460C37BD465DF8047B704780B41B
S22401004083B000AF0023FB8004E0FB889BB201339BB2FB80FB889BB2B3F5C37FF5D30123C4
S22401006018460C37BD465DF8047B704780B483B000AF0023FB8004E0FB889BB201339BB262
S224010080FB80FB889BB2D12BF6D9012318460C37BD465DF8047B704780B483B000AF0023B8
S2240100A0FB8004E0FB889BB201339BB2FB80FB889BB2B3F5027FF5D3012318460C37BD4686
S2240100C05DF8047B704780B500AF232009F0C8FF0123184680BD80B500AF192009F0C0FF14
S2240100E00123184680BD80B483B000AF0023FB8004E0FB889BB201339BB2FB80FB889BB207
S224010100012BF6D9012318460C37BD465DF8047B704780B582B000AF0023FB710023BB7197
S224010120002009F0D5FD0346BB71BB79012B02D0BB79032B02D10123FB7101E00023FB71F2
S224010140FB7918460837BD4680BD80B582B000AF0023FB710023BB71012009F0B9FD03463B
S224010160BB71BB79012B02D0BB79032B02D10123FB7101E00023FB71FB7918460837BD46D2
S22401018080BD80B500AF012303225021002009F067FC00BF80BD80B500AF01230322282190
S2240101A0002009F05DFC00BF80BD80B500AF012300225021002009F053FC00BF80BD80B597
S2240101C000AF012300222821002009F049FC00BF80BD80B500AF08F00BFD0346184680BDB9
S2240101E080B500AF08F0DEFC0346184680BD80B500AF08F0EBFC00BF80BD80B582B000AF8A
S22401020003460A46FB711346BB71BA79FB791146184607F003FC034618460837BD4680BDD6
S22401022080B582B000AF0023FB71402005F0B8FC0346002B02D00523FB7112E04FF480601B
S22401024005F0AEFC0346002B02D00623FB7108E04FF4807005F0A4FC0346002B01D00923FD
S224010260FB71FB79DBB218460837BD4680BD80B582B000AF0023FB71202005F091FC03467E
S224010280002B02D00223FB7111E04FF4007005F087FC0346002B02D00423FB7107E080204E
S2240102A005F07EFC0346002B01D00823FB71FB7918460837BD4680BD80B582B000AF002363
S2240102C0FB710023BB80092007F0C6FC034603F00103002B05D1232007F044F90346BB8030
S2240102E00CE0132007F0B8FC034603F00103002B04D1372007F036F90346BB80BB887F2B00
S22401030002D80023FB7108E0BB88B3F5A07F02D20123FB7101E00223FB71FB791846083795
S224010320BD4680BD80B582B000AF0023FB710023BB71002007F016F90346BB71BB79002B89
S22401034001D00123FB71FB7918460837BD4680BD80B500AF00F014F800F07EFA00F08AFA29
S22401036000BF80BD80B400AF044B9B78C3F30313DBB21846BD465DF8047B70479802002037
S22401038080B582B000AF0123FB71154B5A7C144BDA75134B1B7C042B1BD801A252F823F0B6
S2240103A0B5030100BB030100C1030100C7030100CD03010000F016F80CE000F04BF809E058
S2240103C000F070F806E000F0E3F803E000F0ECF800E000BFFB7918460837BD4680BD00BFA8
S2240103E09802002080B582B000AF0023FB710023BB71FFF7EEFE0346BB71BB79082B13D1A7
S224010400124B05225A74124B1B780133DAB2104B1A700F4B1B78322B13D90D4B00221A70B5
S2240104200A4B04221A740CE0BB79FF2B03D1074B04221A7405E0054B01221A74034B002233
S2240104405A74FB7918460837BD4680BD9802002000C4FF1F80B582B000AF0023FB71FFF740
S224010460DFFE0346002B05D000F0DEF90C4B04221A7410E001F0E6FC0346012B05D100F080
S224010480D3F9074B02221A7405E000F0F1F800F069F900F09BF9FB7918460837BD4680BDA1
S2240104A09802002080B582B000AF0023BB7100237B710023FB7100233B7101F013FD034660
S2240104C07B717B79FF2B03D1304B01221A7457E07B790A2B36D801A252F823F0090501008F
S2240104E00F050100150501001B0501004505010021050100270501002D050100330501009A
S224010500390501003F0501000523FB711BE00423FB7118E00623FB7115E00723FB7112E025
S2240105200323FB710FE00223FB710CE00123FB7109E00023FB7106E00823FB7103E0092323
S224010540FB7100E000BFFB79002B08D1FFF7B4FE0346002B14D10D4AFB79537410E00B4B39
S2240105605B7CFA791946012000F092FD03463B713B79002B04D100F057F9044AFB795374BA
S224010580BB7918460837BD4680BD00BF9802002080B483B000AF0023FB71FB7918460C3711
S2240105A0BD465DF8047B704780B582B000AF0023FB710023BB71FFF733FE0346BB71BB79E3
S2240105C0002B05D00E4B00221A7000F01DF811E00B4B1B780133DAB2094B1A70084B1B78AD
S2240105E0092B07D9FFF768FE0346002B02D1054B00221A74FB7918460837BD4680BD00BF2E
S22401060001C4FF1F9802002080B500AF164B5B7C002B10D0002B1DDB042B1BDC134B4FF426
S224010620C8721A80FFF748FE0346002B19D10E4B00225A7415E00D4B1B88002B06D00B4BB6
S2240106401B88013B9AB2094B1A800BE0064B09225A7407E0054B00221A80034B09225A740C
S22401066000E000BF00BF80BD9802002002C4FF1F80B582B000AF0023BB710023FB71002324
S2240106807B71FFF7ADFD0346BB71BB79002B53D0334B9B7D002B4FD10023FB7145E0304BC1
S2240106A01B7E1A46FB792E49920013440C335B000B441B79BA799A4234D1294B187E284B59
S2240106C01B7E1A46FB792649920013440C335B000B44DB781A460146002000F0D9FC03463E
S2240106E07B717B79002B0FD100F09EF81C4B1B7E1A46FB791A49920013440C335B000B447A
S224010700DA78174B5A7403E07B79184600F06EF8BB79012B02D0BB79102B0AD1104B0122CC
S2240107209A7506E0FB790133FB71FB79032BB6D900E000BFFFF75BFDFFF74BFD0346022BD8
S22401074009D1074B00229A75054B5A7C044B1A76034B00225A7600BF0837BD4680BD00BFF4
S2240107609802002080B582B000AF0023FB71164B5B7C002B24D0144B5B7C042B20D800F070
S224010780CBFC0346FB71FB79092B08D100F04CF80D4B00225A740C4B00229A7610E0FB79ED
S2240107A0042B0AD1084B9B7E002B02D1042000F01DF8054B01229A7602E0034B00229A76B1
S2240107C000BF0837BD4680BD9802002080B582B000AFFFF725FD0346FB71FFF748FD0346B4
S2240107E0BB7100BF0837BD4680BD000080B485B000AF0346FB710123FB73FB79062B09D8A4
S224010800084AFB799374074B4FF4C8729A82054B01225A76FB7B18461437BD465DF8047BE1
S224010820704700BF9802002080B483B000AF0123FB71084B00229A82064B00229A74054B7A
S22401084000225A76FB7918460C37BD465DF8047B704700BF9802002080B582B000AF00234B
S224010860FB7100F02FF800F049FAFB7918460837BD4680BD80B582B000AF0123FB710023A2
S224010880BB71FFF74FFD0346BB71BB79002B09D10B4B1B7C042B02D1FFF773FC0BE0FFF701
S2240108A084FC08E0064B1B7C042B02D1FFF773FC01E0FFF784FCFB7918460837BD4680BDD3
S2240108C09802002080B582B000AF0023FB7100F021F800F028F800F02FF800F06BF800F040
S2240108E049F800F0BBF800F0C2F800F005F900F0C7F800F055F900F05DF900F07BF900F0EF
S22401090097F900F0A5F900F0F0F9FB7918460837BD4680BD80B500AF00210020FFF76DFC05
S2240109200123184680BD80B500AF00210120FFF764FC0123184680BD80B500AF0C4B5B78A9
S224010940C3F30303DBB2013303F00F03D9B2084A537861F303035370054B5B78C3F303036B
S224010960DBB219460220FFF748FC0123184680BD9802002080B500AF0D4B9B78C3F3031395
S224010980DBB2C3F10F03DBB203F00F03D9B2084AD37861F30713D370054BDB78C3F3031324
S2240109A0DBB219460320FFF728FC0123184680BD9802002080B582B000AF0023FB71264B79
S2240109C05B7C092B34D801A252F823F0F5090100FB090100010A0100070A01000D0A0100C0
S2240109E0130A0100190A01001F0A0100250A01002B0A01000823FB711BE00723FB7118E0FF
S224010A000623FB7115E00523FB7112E00123FB710FE00023FB710CE00223FB7109E0032326
S224010A20FB7106E00923FB7103E00A23FB7100E000BFFB7903F00F03D9B2074A937861F3F7
S224010A4007139370FB7919460420FFF7D6FB012318460837BD4680BD9802002080B500AF16
S224010A6000210520FFF7C9FB0123184680BD80B500AF00210620FFF7C0FB0123184680BD16
S224010A8080B582B000AF0023FB710023BB71194B5B79C3F30113DBB25B005AB2154B5B7932
S224010AA0C3F38013DBB25BB213435BB2FB71114B5B78C3F30303DBB21A46FB791344BB71AF
S224010AC0BB795B42DBB203F00F03D9B2094A537961F303035371074B5B79C3F30303DBB276
S224010AE019460720FFF789FB012318460837BD4680BD00BF9802002080B582B000AF00233D
S224010B00FB71244BDB7D002B0DD1224B5B7C002B09D0204B5B7C032B05D81F4BC8221A8010
S224010B201E4B00221A8001F08FFA0346012B05D1194B00221A80194BC8221A80164B1B88B9
S224010B40002B07D0144B1B88013B9AB2124B1A800123FB71114B1B88002B07D00F4B1B887E
S224010B60013B9AB20D4B1A800223FB71FB7903F00303D9B2074A537961F305135371FB79AB
S224010B8019460820FFF739FB012318460837BD4680BD00BF9802002004C4FF1F06C4FF1F56
S224010BA080B500AF00210920FFF727FB0123184680BD000080B500AF01F012F90346012BD5
S224010BC005D10B4A137843F00803137004E0084A13786FF3C3031370054B1B78C3F3C003D0
S224010BE0DBB219460A20FFF708FB0123184680BD9802002080B500AF0C4B1B78C3F30313CD
S224010C00DBB2013303F00F03D9B2084A137861F307131370054B1B78C3F30313DBB2194614
S224010C200B20FFF7EAFA0123184680BD9802002080B500AF054BDB79C3F30303DBB2194600
S224010C400C20FFF7DAFA0123184680BD9802002080B500AF0F4B1B7C022B0AD100F01CF83E
S224010C600346012B05D10B4A137843F00403137004E0084A13786FF382031370054B1B7878
S224010C80C3F38003DBB219460D20FFF7B6FA0123184680BD9802002080B582B000AF0023A4
S224010CA0FB710023BB71FFF794FA0346022B02D0BB790133BB71FFF748FA0346012B02D193
S224010CC0BB790133BB71FFF724FA0346012B02D1BB790133BB71BB79002B01D00123FB71CA
S224010CE0FB7918460837BD4680BD80B500AF00210E20FFF782FA0123184680BD80B500AF55
S224010D0000F00EF800F04AF800F028F800F09AF800F0BAF800F0C2F80123184680BD000008
S224010D2080B500AF0C4B5B7AC3F30303DBB2013303F00F03D9B2084A537A61F30303537252
S224010D40054B5B7AC3F30303DBB219460F20FFF754FA0123184680BD9802002080B500AFF0
S224010D600D4B9B7AC3F30313DBB2C3F10F03DBB203F00F03D9B2084AD37A61F30713D37272
S224010D80054BDB7AC3F30313DBB219461020FFF734FA0123184680BD9802002080B582B0BC
S224010DA000AF0023FB71264B5B7C092B34D801A252F823F0DD0D0100E30D0100E90D010094
S224010DC0EF0D0100F50D0100FB0D0100010E0100070E01000D0E0100130E01000823FB7109
S224010DE01BE00723FB7118E00623FB7115E00523FB7112E00123FB710FE00023FB710CE05A
S224010E000223FB7109E00323FB7106E00923FB7103E00A23FB7100E000BFFB7903F00F03AE
S224010E20D9B2074A937A61F307139372FB7919461120FFF7E2F9012318460837BD4680BD7A
S224010E409802002080B500AF0E4B1B7803F00803DBB2002B05D10B4A137A6FF3C3031372E7
S224010E6004E0084A137A43F008031372054B1B7AC3F3C003DBB219461220FFF7BEF9012399
S224010E80184680BD9802002080B500AF00211320FFF7B3F90123184680BD000080B500AF7A
S224010EA00E4B1B7803F00403DBB2002B05D10B4A137A6FF38203137204E0084A137A43F074
S224010EC004031372054B1B7AC3F38003DBB219461420FFF792F90123184680BD9802002048
S224010EE080B582B000AF0023FB710023BB71002008F0EEFE0346BB71BB79012B02D0BB7919
S224010F00032B02D10123FB7101E00023FB71FB7918460837BD4680BD80B582B000AF002340
S224010F20FB710023BB71012008F0D2FE0346BB71BB79012B02D0BB79032B02D10123FB719B
S224010F4001E00023FB71FB7918460837BD4680BD80B582B000AF0023FB710023BB710120B5
S224010F6006F000FB0346BB71BB79002B02D10123FB7101E00023FB71FB7918460837BD46BF
S224010F8080BD80B582B000AF0023FB710023BB712F2006F0E7FA0346BB71BB79012B02D14C
S224010FA00123FB7101E00023FB71FB7918460837BD4680BD80B582B000AF0023FB71002312
S224010FC0BB71252006F0CEFA0346BB71BB79012B02D10123FB7101E00023FB71FB79184662
S224010FE00837BD4680BD80B582B000AF0023FB80232006F0B7FA0346FB80FB8818460837EA
S224011000BD4680BD80B582B000AF0023FB71072004F06CF80346B3F5D77F02D90123FB71B4
S22401102001E00023FB71FB7918460837BD4680BD80B582B000AF0023FB710023BB711520C0
S22401104006F090FA0346BB71BB79012B02D10123FB7101E00023FB71FB7918460837BD464E
S22401106080BD80B483B000AF0023FB710123BB71BB79012B02D10123FB7101E00023FB7105
S224011080FB7918460C37BD465DF8047B7047000080B584B000AF0346FB710B46BB71134604
S2240110A07B710823FB73BB79042B2ED87B79042B2BD8FB79012B06D1164A92F82C3143F025
S2240110C0010382F82C31B9797B7912481A4652001A4493001A460B461B015B1A9B001344D8
S2240110E0034404331B689847B9797B7909481A4652001A4493001A460B461B015B1A9B0013
S2240111001344034408331B78FB73FB7B18461037BD4680BDDC02002080B400AF034B93F8DA
S22401112038311846BD465DF8047B7047DC02002080B500AF00F004F800F0D0F800BF80BDD2
S22401114080B500AF00F00AF800F028F800F046F800F084F800F0A2F800BF80BD80B582B01C
S22401116000AFFFF7D9FE0346FB71FB79012B07D1094A92F82C3143F0010382F82C3106E092
S224011180054A92F82C316FF3000382F82C3100BF0837BD4680BD00BFDC02002080B582B075
S2240111A000AFFFF707FF0346FB71FB79012B07D1094A92F82C3143F0020382F82C3106E022
S2240111C0054A92F82C316FF3410382F82C3100BF0837BD4680BD00BFDC02002080B582B0F4
S2240111E000AFFFF700FF0346FB80FB887F2B0ED8194A92F82C3143F0040382F82C31164AB3
S22401120092F82C3143F0080382F82C3120E0FB88B3F5A07F0ED2104A92F82C316FF382037A
S22401122082F82C310C4A92F82C3143F0080382F82C310DE0084A92F82C316FF3820382F8F8
S2240112402C31054A92F82C316FF3C30382F82C3100BF0837BD4680BDDC02002080B582B053
S22401126000AFFFF7E5FE0346FB71FB79002B07D1094A92F82C3143F0100382F82C3106E077
S224011280054A92F82C316FF3041382F82C3100BF0837BD4680BD00BFDC02002080B582B060
S2240112A000AFFFF7DEFE0346FB71FB79012B07D1094A92F82C3143F0200382F82C3106E02D
S2240112C0054A92F82C316FF3451382F82C3100BF0837BD4680BD00BFDC02002080B582B0DF
S2240112E000AF0023FB711E4B93F82C3103F00403DBB2002B21D000F035F803461A46FB797C
S2240113001344FB7100F05CF803461A46FB791344FB7100F095F803461A46FB791344FB7183
S224011320FB79002B04D00E4B092283F8382112E00B4B002283F838210DE000F013F803466D
S224011340002B04D0064B042283F8382103E0044B002283F83821FB7918460837BD4680BDC4
S224011360DC02002080B582B000AF0023FB710023BB71FFF7B5FD0346BB71BB79012B13D114
S2240113800E4BB3F8303101339AB20C4BA3F830210A4BB3F83031022B0AD9084B0222A3F89C
S2240113A030210123FB7103E0044B0022A3F83021FB7918460837BD4680BD00BFDC020020F8
S2240113C080B582B000AF0023FB710023BB7100237B7100233B71FFF7BBFD0346BB71FFF71C
S2240113E0E9FD03467B71FFF7CCFD03463B71BB79002B19D17B79002B16D13B79002B13D106
S2240114000E4BB3F8343101339AB20C4BA3F834210A4BB3F83431092B0AD9084B0922A3F801
S22401142034210123FB7103E0044B0022A3F83421FB7918460837BD4680BD00BFDC0200206F
S22401144080B582B000AF0023FB710023BB71FFF7D9FD0346BB71BB79002B13D10E4BB3F80A
S224011460363101339AB20C4BA3F836210A4BB3F83631092B0AD9084B0922A3F83621012324
S224011480FB7103E0044B0022A3F83621FB7918460837BD4680BD00BFDC02002080B483B01F
S2240114A000AF0123FB71FB7918460C37BD465DF8047B704780B483B000AF0123FB7100237B
S2240114C0BB80374B93F82C3103F02003DBB2002B04D1334B08221A75FB795AE0304BB3F8B3
S2240114E02C212F4B9B891340BB80BB88172B4BD801A252F823F000BF8115010081150100D8
S2240115008115010081150100811501008115010081150100811501008915010089150100FD
S2240115208915010089150100891501008915010089150100891501007915010079150100CD
S224011540791501007915010071150100691501006115010059150100114B00221A7517E077
S2240115600F4B01221A7513E00D4B02221A750FE00B4B03221A750BE0094B05221A7507E086
S224011580074B06221A7503E0054B08221A7500BFFB7918460C37BD465DF8047B704700BF2F
S2240115A0DC02002080B483B000AF0123FB710023BB80334BB3F82C21314B1B8B1340BB80FD
S2240115C0BB88172B50D801A252F823F05F1601005F1601005F1601005F1601005F1601000A
S2240115E05F1601005F1601005F160100691601006916010069160100691601006916010003
S224011600691601006916010069160100551601005516010055160100551601004B16010032
S22401162041160100371601002D160100144B002283F820201DE0124B012283F8202018E04E
S2240116400F4B022283F8202013E00D4B032283F820200EE00A4B082283F8202009E0084BBC
S224011660062283F8202004E0054B082283F8202000BFFB7918460C37BD465DF8047B704706
S224011680DC02002080B483B000AF0123FB710023BB803A4B93F82C3103F02003DBB2002B07
S2240116A005D1364B082283F82C20FB7960E0334BB3F82C21314B9B8C1340BB80BB88172BFC
S2240116C050D801A252F823F05B1701005B1701005B1701005B1701005B1701005B1701002A
S2240116E05B1701005B17010065170100651701006517010065170100651701006517010010
S224011700651701006517010051170100511701005117010051170100471701003D17010071
S2240117203317010029170100144B002283F82C201DE0124B012283F82C2018E00F4B022215
S22401174083F82C2013E00D4B032283F82C200EE00A4B082283F82C2009E0084B062283F872
S2240117602C2004E0054B082283F82C2000BFFB7918460C37BD465DF8047B7047DC02002092
S22401178080B483B000AF0123FB71FB7918460C37BD465DF8047B704780B483B000AF0123C0
S2240117A0FB71FB7918460C37BD465DF8047B704780B483B000AF0123FB71FB7918460C3759
S2240117C0BD465DF8047B704780B483B000AF0123FB71054B002283F85C20FB7918460C3751
S2240117E0BD465DF8047B7047DC02002080B483B000AF0123FB710023BB800D4BB3F82C2103
S2240118000B4BB3F860301340BB80BB88282B04D1074B002283F8682003E0054B082283F8E9
S2240118206820FB7918460C37BD465DF8047B7047DC02002080B483B000AF0123FB71FB795F
S22401184018460C37BD465DF8047B704780B483B000AF0123FB71FB7918460C37BD465DF840
S224011860047B704780B483B000AF0123FB710023BB802C4B93F82C3103F02003DBB2002BFB
S22401188005D1284B082283F88C20FB7944E0254BB3F82C21234BB3F884301340BB80BB880A
S2240118A00B2B34D801A252F823F000BFE7180100E7180100E7180100E71801000F190100F8
S2240118C00F1901000F1901000F19010005190100FB180100F1180100DD180100114B0022D6
S2240118E083F88C2017E00F4B052283F88C2012E00C4B012283F88C200DE00A4B022283F8A8
S2240119008C2008E0074B032283F88C2003E0054B08221A7500BFFB7918460C37BD465DF877
S224011920047B7047DC02002080B483B000AF0123FB71FB7918460C37BD465DF8047B704724
S22401194080B483B000AF0123FB710C4B93F82C3103F02003DBB2002B04D1084B082283F801
S224011960A42003E0054B002283F8A420FB7918460C37BD465DF8047B704700BFDC020020A9
S22401198080B483B000AF0123FB71FB7918460C37BD465DF8047B704780B483B000AF0123BE
S2240119A0FB71FB7918460C37BD465DF8047B704780B483B000AF0123FB710023BB802D4B96
S2240119C093F82C3103F02003DBB2002B05D1294B082283F8C820FB7945E0264BB3F82C2172
S2240119E0244BB3F8C0301340BB80BB880B2B34D801A252F823F000BF331A0100331A010069
S224011A00331A0100331A01005B1A01005B1A01005B1A01005B1A0100511A0100471A01007E
S224011A203D1A0100291A0100124B002283F8C82018E0104B052283F8C82013E00D4B0122D7
S224011A4083F8C8200EE00B4B022283F8C82009E0084B032283F8C82004E0064B082283F8B4
S224011A60C82000BFFB7918460C37BD465DF8047B704700BFDC02002080B483B000AF01231F
S224011A80FB71054B002283F8D420FB7918460C37BD465DF8047B7047DC02002080B483B0EB
S224011AA000AF0123FB71FB7918460C37BD465DF8047B704780B483B000AF0123FB710C4B41
S224011AC093F82C3103F02003DBB2002B04D1084B082283F8EC2003E0054B002283F8EC2095
S224011AE0FB7918460C37BD465DF8047B704700BFDC02002080B483B000AF0123FB71FB7966
S224011B0018460C37BD465DF8047B704780B483B000AF0123FB710023BB802D4B93F82C312C
S224011B2003F02003DBB2002B05D1294B082283F80421FB7945E0264BB3F82C21244BB3F8A1
S224011B40FC301340BB80BB880B2B34D801A252F823F000BF8F1B01008F1B01008F1B010080
S224011B608F1B0100B71B0100B71B0100B71B0100B71B0100AD1B0100A31B0100991B01002B
S224011B80851B0100124B002283F8042118E0104B052283F8042113E00D4B012283F8042157
S224011BA00EE00B4B022283F8042109E0084B032283F8042104E0064B082283F8042100BF58
S224011BC0FB7918460C37BD465DF8047B704700BFDC02002080B483B000AF0123FB71054BA9
S224011BE0002283F81021FB7918460C37BD465DF8047B7047DC02002080B483B000AF012336
S224011C00FB710C4B93F82C3103F02003DBB2002B04D1084B082283F81C2103E0054B0022E6
S224011C2083F81C21FB7918460C37BD465DF8047B704700BFDC02002080B483B000AF01234C
S224011C40FB71FB7918460C37BD465DF8047B704780B582B000AF00237B600022174940F2A7
S224011C60A36006F011F80122154940F2A36006F00BF80D2005F0F0FF034603F00103002B31
S224011C800AD0142005F0E8FF034603F00103002B02D000237B600CE00D2005F0DDFF0346E6
S224011CA003F00103002B02D1044B7B6001E0044B7B607B6818460837BD4680BD10C4FF1F42
S224011CC018C4FF1F80B582B000AF0023FB710F2005F0C2FF034603F00103002B05D12D20EC
S224011CE005F040FC0346FB710CE0162005F0B4FF034603F00103002B04D13C2005F032FC6F
S224011D000346FB71FB7918460837BD4680BD80B582B000AF0023FB710E2005F09DFF03460A
S224011D2003F00203002B09D0152005F095FF034603F00203002B01D00123FB71FB79184644
S224011D400837BD4680BD80B582B000AFFF23FB710E2005F081FF034603F00303002B05D174
S224011D602B2005F0FFFB0346FB710CE0152005F073FF034603F00303002B04D13A2005F055
S224011D80F1FB0346FB71FB7918460837BD4680BD80B582B000AF0023FB71402003F000FF54
S224011DA00346002B02D00523FB7112E04FF4806003F0F6FE0346002B02D00623FB7108E084
S224011DC04FF4807003F0ECFE0346002B01D00923FB71FB79DBB218460837BD4680BD000032
S224011DE080B582B000AF0023FB71154B1B78002B1ED100F0ABF80346BB71FFF7C9FF03461C
S224011E007B71FFF784FF03463B713B79002B0CD1BB79012B09D17B79002B06D1084B012200
S224011E20DA70074B01221A7002E0054B0022DA70034BDB78FB71FB7918460837BD4680BD57
S224011E4008C4FF1F80B582B000AF0023FB71244B1B78012B36D100F079F80346BB71FFF7EC
S224011E6031FF03467B717B79012B02D07B79032B09D11B4B01229A70194B00229A80184B73
S224011E8002221A7024E0164B9B8801339AB2144B9A80BB79012B02D1114B00229A80104BE7
S224011EA09B8840F6B832934212D90D4B00221A700B4B00229A800A4B0022DA70084B00224D
S224011EC09A7005E0064B00229A70054B00229A80034B9B78FB71FB7918460837BD4680BDE6
S224011EE008C4FF1F80B582B000AFFF23FB71FFF72AFF0346BB71FFF7E5FE03467B717B79B8
S224011F00002B02D07B79022B09D10F4B0022DA700D4B00229A700C4B00221A700EE0BB7954
S224011F20FF2B09D1084B0022DA70074B00229A70054B00221A7001E0BB79FB71FB7918460B
S224011F400837BD4680BD00BF08C4FF1F80B584B000AF0023FB73284BBB6000237B60FFF728
S224011F6077FE78607B68002B40D0BB6810331A787B6805331B789A4238D1BB680F331A786E
S224011F807B6806331B789A4230D1BB680E331A787B6807331B789A4228D1BB680D331A783F
S224011FA07B681B789A4221D1BB680C331A787B6801331B789A4219D1BB680B331A787B689D
S224011FC002331B789A4211D1BB680A331A787B6803331B789A4209D1BB6809331A787B684D
S224011FE004331B789A4201D10123FB73FB7B18461037BD4680BD00BF0005001480B582B037
S22401200000AF0023FB71FEF7ADF90346FB71FB7918460837BD4680BD80B500AF094B002281
S2240120209A70FFF7EBFF03461A46064B5A7000F017F800F021F8034B5A78024B1A7000BF2E
S22401204080BD00BF20C4FF1F80B400AF034B9B781846BD465DF8047B704700BF20C4FF1F8B
S22401206080B582B000AF0123FB7100F047F8FB7918460837BD4680BD80B483B000AF0123FA
S224012080BB710023FB710023FB7128E0FB79194A9B0013445A88184B9B8813409AB2FB79A4
S2240120A014499B000B445B889A420ED1FB79114A12F82330012B0ED0FB790E4A012102F817
S2240120C023100D4B01229A700CE0FB79094A002102F8231000E000BFFB790133FB71FB791A
S2240120E0002BD3D0BB7918460C37BD465DF8047B704700BF1804002020C4FF1F80B483B045
S22401210000AF0123FB710D4B1B78082B09D00B4B5B78082B05D1094A537943F00403537134
S22401212004E0064A53796FF382035371FB7918460C37BD465DF8047B704700BF20C4FF1F8A
S22401214080B500AF0C4BDB78DBB2032B0DD801A252F823F07121010065210100712101009E
S2240121607121010000F03AF803E000F055F800E000BF00BF80BD00BFF8E8FF1F80B500AF48
S2240121800C4BDB78DBB2002B0FD10A4B0122DA70084B9B889BB20749064AD28892B21344DD
S2240121A09BB2CB80FFF7CCFF02E000F035F800BF80BD00BFF8E8FF1F80B400AF064B064A84
S2240121C0528992B29A80044B0022DA7000BFBD465DF8047B704700BFF8E8FF1F80B500AF17
S2240121E00C4B9B889BB2002B11D100F023FF0346002B08D0074B0022DA70064B054A52896E
S22401220092B29A8003E0034B0322DA7000BF00BF80BD00BFF8E8FF1F80B500AFFFF7CCFF9D
S224012220024B15221A7000BF80BD00BFF8E8FF1F80B500AFC52000F0BBF80346184680BD81
S22401224080B582B000AF1B4B5B7ADBB2002B01D100F08CFE174B5B7ADBB21A46154B1B8AFA
S2240122609BB21344082B02D88A23FB710EE0114B5B7BDBB2012B07D10E4B1B7BDBB2002B36
S22401228002D08923FB7101E08823FB71FB79184600F08EF80346BB71BB79012B05D1054B13
S2240122A05A7BD2B2013AD2B25A73BB7918460837BD4680BDF8E8FF1F80B582B000AF0023EB
S2240122C0FB71394B9B78DBB2012B67D1364B00229A70364B1B7803F0F003302B5ED1334B55
S2240122E01B7803F00F03012B4DD0012B02D3022B4CD04FE02C4B1B78DBB2C62B32D12A4B7E
S22401230001229A73284B294A52781A73274B9B785BB2002B03DA254B9B78F02B03D9234BC8
S2240123209B78F92B02D9214B7F229A701F4B9B785BB2002B09DB1C4B1C4A9278114689001E
S2240123400A44D2B292B25A8110E0174A174B9B78F03B0021B3FBF1F3DBB20133DBB29BB247
S224012360538103E0104B114A52781A730E4B0E4A127BD2B25A730C4B87221A7000F0F6FD97
S2240123800123FB710AE000F017FA07E0272000F0D1F903E02C2000F0CDF900BFFB7918465E
S2240123A00837BD4680BD00BFF8E8FF1F28C4FF1F80B586B000AF0346FB71334B3B610123C4
S2240123C0FB733B695B7ADBB2C3F10803BB75BB7D9AB23B691B8A9BB29A4241D93B691B8A3B
S2240123E09BB2BB753CE0BB7DFB753B699B8A9BB2DAB23B69DB8A9BB2DBB2D31ABB73FA7D7F
S224012400BB7B9A4201D9BB7BFB753B699B693A69D28A92B299183B695B7ADBB2FA7D1B48A8
S22401242000F04EFD3B695B7ADAB2FB7D1344DAB23B695A723B69DB8A9AB2FB7D9BB213441A
S2240124409AB23B69DA823B691B8A9AB2FB7D9BB2D31A9AB23B691A82BA7DFB7DD31ABB758B
S224012460BB7D002BBFD13B695B7ADBB2184600F0B9FD3B6900225A723B69FA791A70FB7BB0
S22401248018461837BD4680BDF8E8FF1F30C4FF1F80B483B000AF0023FB71074B5B78DBB2E2
S2240124A0022B01D10123FB71FB7918460C37BD465DF8047B704700BFF8E8FF1F80B584B0BE
S2240124C000AF544BBB600023FB730023BB73BB68DB889BB2002B06D0BB68DB889BB2013BC8
S2240124E09AB2BB68DA80BB689B889BB2002B06D0BB689B889BB2013B9AB2BB689A80FFF72B
S2240125001FFE00F07FF90346FB71BB7B0133BB73FB79012B02D10123FB736EE0BB681B78DA
S224012520BB71BB7903F03F037B717B79152B19D87B79394A52F82330984703463B71BB68E4
S2240125401B78FB70FA78BB799A4211D000F034F9FB7803F03F03314AD35C152B08D0FFF797
S2240125600DFE05E0BB6815221A700123FB7302E03B79012BD2D0FB7B002B3ED1BB681B7825
S224012580BB70BB78152B02D10123FB7335E0BB7803F03F03224AD35CFF2B19D0BB68DB8881
S2240125A09BB2002B14D1BB7803F03F031C4AD35C1A461C4B9B5C802B0AD0BB7803F03F0310
S2240125C0174AD35C1A46174B9B5C184600F0ECF9BB689B787B707B78012B03D1BB68002220
S2240125E09A700AE07B78002B07D07B78022B04D0BB6815221A700123FB73FB79022B03D10D
S224012600BB7B042B7FF67DAFFB7B18461037BD4680BD00BFF8E8FF1FD87B020034040020E9
S2240126201C0400204C04002080B586B000AF03463A60FB800B46BB80FB88072B2CD8FB88A4
S224012640DBB203F00703DBB2FB7307F10F0100230122314800F034FCFA7B012339682E4858
S22401266000F02EFCFB88DBB20133DBB2184600F0B9FC00F0DFFC0346002B04D08023FB7540
S2240126800023BB7503E02423FB750623BB75FB7D184600F019FD39E0204B3B613B691B78BB
S2240126A0FB75FB7D012B15D13B69FA881A823B69BA889A823B690022DA823B693A689A61F3
S2240126C0FB88184600F024FC3B69C4221A700023BB751BE0FB7D002B05D13B6915221A70C3
S2240126E00523BB7512E0FB7D152B0DD0FB7D03F03F03152B02D80123BB7507E03B69152218
S2240127001A700623BB7501E00623BB75BB7D18461837BD4680BD00BF30C4FF1FF8E8FF1FA2
S22401272080B500AFFFF748FD252000F03DF900BF80BD000080B584B000AF0346FB710B4BEA
S224012740FB60FB7903F04003002B05D1FB6801221A70FB6800225A81FB79184600F0B4FC8B
S224012760034618461037BD4680BD00BFF8E8FF1F80B584B000AF0346FB710E4BFB60FB7973
S22401278003F04003002B05D1FB6800229A70FB6801221A70FB681B8A99B2FB6803F1180299
S2240127A0FB681433F87900F07BFC034618461037BD4680BDF8E8FF1F80B483B000AF0E4BF6
S2240127C01B78DBB2FB80FB8803F03F030B4AD35CFF2B0BD0084A0A49FB8803F03F0307486B
S2240127E0C35C0B449B789BB2D38000BF00BF0C37BD465DF8047B7047F8E8FF1F1C04002025
S224012800307C020080B582B000AF0023FB7100F023FC0346002B41D00223FB71224B9B78BA
S224012820DBB2BB80BB88002B1ED1204B1B7823F00F03DAB21E4B1A701B4B01229A701C4BD1
S2240128401B78002B03D01A4B1B78102B26D1164B1B78DBB27B807B8803F04003002B1DD0EA
S224012860114B00229A7019E0BB88022B11D10E4B1B78DBB203F0C003402B03D13020FFF7CB
S22401288077FF0BE0084B01229A702420FFF752FF04E0054B15221A700123FB71FB7918466F
S2240128A00837BD4680BD00BFF8E8FF1F28C4FF1F26C4FF1F80B483B000AF00233B71374B5D
S2240128C01B7823F00F03FB70FB78102B08D0FB78002B05D0324B00229A7000237B7155E0E9
S2240128E0FB78002B19D12D4B1B789BB203F00F03FB80FB88002B02D0FB88072B05D9284BEC
S22401290000229A7000237B7127E04C233B71244B01225A7201237B711FE0204B1B781B02CC
S2240129201BB203F470631AB21C4B5B781BB213431BB2FB80FB88083B40F6F772934205D971
S224012940174B00229A7000237B7106E04D233B71134B02225A7201237B717B79012B15D16E
S2240129600F4A3B7913700E4AFB8813820C4B0022DA820B4B00229A82094B00229A61084B24
S224012980084A52781A72064B02229A707B7918460C37BD465DF8047B704700BF28C4FF1F1E
S2240129A0F8E8FF1F307C020080B584B000AF0346FB71104B1B78DBB2BB810023FB73BB890C
S2240129C003F0C003402B05D1FB791846FFF7D0FE0346FB73BB8903F08003002B05D0FB797F
S2240129E01846FFF7A7FE0346FB73FB7B18461037BD4680BDF8E8FF1F80B582B000AF1D4B4A
S224012A00DB787B717B79002B22D11A4B1B783B713B7903F03F03184AD35CFB708023FB71C7
S224012A203B79542B01D12723FB71FB78012B09D1FB791846FFF7B8FF0E4B0E4A528992B20D
S224012A409A8002E00B4AFB7813700123BB710CE07B79032B07D1FFF7AFFB2420FFF7A4FF76
S224012A600123BB7101E00023BB71BB7918460837BD4680BDF8E8FF1F3404002080B582B002
S224012A8000AF084B9B78DBB2012B04D1FFF712FF0346FB7101E00023FB71FB791846083750
S224012AA0BD4680BDF8E8FF1F80B400AF044B15221A7000231846BD465DF8047B704700BF11
S224012AC0F8E8FF1F80B500AF074B5B7ADBB2012B01D1412300E043231A460121012000F01F
S224012AE0D7F80346184680BDF8E8FF1F80B582B000AF124B5B7ADBB2022B02D04323FB7179
S224012B0001E04223FB71FB791A464E214F2000F0BFF80346BB71BB79012B09D1074B1B7810
S224012B20DBB24F2B04D1054B01229A7300F0A2F8BB7918460837BD4680BD00BFF8E8FF1FDB
S224012B4080B582B000AF2A4B9B78DBB2012B47D1284B1B7823F00F03BB71BB79102B02D068
S224012B60BB79002B05D1224B01221A700123FB7138E0BB79202B2DD11D4B9B7BDBB27B71E4
S224012B807B79DBB21A461B4B1B7803F00F039A4205D02F20FFF7ECFD0023FB7122E0144B81
S224012BA001225A72124B5A7BD2B2013AD2B25A730F4A104B1B780133DBB203F00F03DBB244
S224012BC093730B4B51221A70094B02229A700123FB7107E0064B00229A700023FB7101E0B0
S224012BE00023FB71FB7918460837BD4680BD00BFF8E8FF1F28C4FF1F80B582B000AF1C4BAB
S224012C005B7ADBB21A461A4B1B8A9BB21344082B04D80123FB710123BB7112E0144B5B7B28
S224012C20DBB2002B09D1124B1B7BDBB2002B04D05223FB715323BB7103E05023FB71012314
S224012C40BB71B979FB794322184600F021F803467B717B79012B06D1054B1B78DBB2522BB7
S224012C6001D100F007F87B7918460837BD4680BDF8E8FF1F80B500AF044B08221A73034B86
S224012C8008225A7300F0C8F900BF80BDF8E8FF1F80B586B000AF0346FB710B46BB711346E7
S224012CA07B71724BFB6001237B7401237B75FB685B7ADBB2C3F10803BB74BB7C9AB2FB684A
S224012CC01B8A9BB29A4240F29D80FB681B8A9BB2BB7497E0BB7CFB74FB689B8A9AB2FB68F9
S224012CE0DB8A9BB2D31AFB82FB8A002B58D1FB680022DA827B791846FFF73AFD03467B7540
S224012D00FB681B78DBB203F0C003402B02D000237B7442E080233B757B7D012B10D07B7DB4
S224012D20002B0DD07B7D032B08D17B79422B05D1FB6854221A7000237B7401E024233B7502
S224012D407B7C002B29D0FB689B8A9BB2002B05D0FB689B69002B01D126233B753B7D802BBD
S224012D6006D03B7D1846FFF703FD00237B7414E0FB689B8A9AB2FB681B8A9BB29A4204D983
S224012D80FB681B8A9AB2FB689A82FB689B8AFB82FB7C002B01D043237B717B7C002B39D065
S224012DA0FB7C9BB2FA8A9A4201D2FB8AFB74FB689B69FA68D28A92B29918FB685B7ADBB243
S224012DC0FA7C2B4800F056F8FB685B7ADAB2FB7C1344DAB2FB685A72FB68DB8A9AB2FB7CEE
S224012DE09BB213449AB2FB68DA82FB681B8A9AB2FB7C9BB2D31A9AB2FB681A82BA7CFB7C21
S224012E00D31ABB747B7D012B05D1BB7C002B7FF461AF00E000BF7B7C002B21D0BB7C002B9D
S224012E2002D1FB6800229A70FB681B8A9BB2002B05D18020FFF79CFC00237B7410E0BB7C6D
S224012E40002B03D1FB68FA791A7009E0BB79012B04D0FB68DB889BB2002B01D000237B74CF
S224012E607B7C18461837BD4680BD00BFF8E8FF1F28C4FF1F80B487B000AFF860B9601146BF
S224012E801A460B46FB711346BB710023FB750DE0FB7DBA681344B979FA7D0A441146FA6869
S224012EA00A4412781A70FB7D0133FB75FA7DFB799A42EDD300BF1C37BD465DF8047B704767
S224012EC080B487B000AFF860B96011461A460B46FB711346BB710023FB750EE0BA79FB7D3C
S224012EE013441A46FB681344FA7DB9680A441278D2B21A70FB7D0133FB75FA7DFB799A42FA
S224012F00ECD300BF1C37BD465DF8047B7047000080B584B000AF0346FB80FB88072B09D8DA
S224012F20114B01225A72FB88DBB203F00F03DBB23B7310E00C4B02225A72FB881B0A9BB2C4
S224012F40DBB203F00F03DBB243F01003DBB23B73FB88DBB27B7307F10C03184600F02AF856
S224012F6000BF1037BD4680BDF8E8FF1F80B582B000AF0F4B9B7BFB71FB7903F00F03DBB20F
S224012F8043F02003DBB23B713B1D184600F012F8074AFB790133DBB203F00F03DBB29373CE
S224012FA0034B01225A7200BF0837BD4680BD00BFF8E8FF1F80B582B000AF78607B681B786F
S224012FC01B09DBB21A46054B9A5C002379680448FFF776FF00BF0837BD4680BD5404002023
S224012FE030C4FF1F80B584B000AF0346FB7107F1080300221A605A60FB79C3F10803DAB2D4
S224013000FB7907F108010348FFF75AFF00BF1037BD4680BD30C4FF1F80B500AF0023082212
S22401302002490348FFF74CFF00BF80BD5804002030C4FF1F80B582B000AF0123FB71082259
S224013040044940F2797005F0FDF8FB7918460837BD4680BD30C4FF1F80B582B000AF00237C
S224013060FB710D4B9B78DBB2002B0FD1042005F079FA0346012B09D108220849042005F06C
S224013080D7FA054B01225A700123FB71FB7918460837BD4680BD00BFF8E8FF1F28C4FF1F74
S2240130A080B584B000AFBA607B600346FB730B46BB81B989F87B7B68BA6800F0E3FD0346E6
S2240130C018461037BD4680BD80B582B000AF0346FB71FB79184600F0F5FE0346184608379F
S2240130E0BD4680BD80B500AF0B4B1B78DBB2002B02D12820FFF758FC074B00225A81064B00
S22401310001221A70044B00229A70034B00225A70FFF752F800BF80BDF8E8FF1F80B588B0A0
S22401312000AFF8607B600B467B8113463B812E4B7B613A897B891946F86800F059F8F861D0
S2240131400023FB760023BB760123FB740023BB760FE07B699A7CBB7E2449CB5C9A4205D132
S224013160FA7CBB7E02FA03F3FB7605E0BB7E0133BB76BB7E012BECD9BB7E022B2DD07B6844
S22401318000221A7097F82830012B0FD1FB691B78002B0BD0FB691A78FB7E1340DBB2FA7EC6
S2240131A09A421CD17B6801221A7018E097F82830002B0FD1FB695B78002B0BD0FB695A7853
S2240131C0FB7E1340DBB2FA7E9A4208D17B6801221A7004E00023FB6101E00023FB61FB69AC
S2240131E018462037BD4680BD28E9FF1FE07C020080B487B000AF78600B467B8013463B80F5
S2240132000023FB757B683B617B88FB8100237B733B69002B02D0FB89002B02D100233B6124
S2240132201EE03B695B883A889A4202D10123FB7511E07B7B01337B737A7B13465B001344F5
S2240132409B001A467B6813443B61FB89013BFB81FB89002BE5D1FB7D002B01D100233B61C2
S2240132603B6918461C37BD465DF8047B7047000080B584B000AF0346FB8000F063FAF860E4
S2240132800E4BBB600E4AFB8813800E4AFB881380FB685B680A4A12881344BA68D27C42F0CB
S2240132A04002D2B21A70064B1B8801339AB2044B1A8000BF1037BD4680BD00BF28E9FF1F27
S2240132C038C4FF1F3AC4FF1F80B500AF0020FFF7CFFF00BF80BD000080B584B000AF03468D
S2240132E0FB7100F02FFAF860FB685B68074A12881344FA791A70054B1B8801339AB2034BC5
S2240133001A8000BF1037BD4680BD00BF38C4FF1F80B584B000AF786000F014FAB8600023C5
S224013320FB7314E0BB685B680E4A128813447A681168FA7B0A441278D2B21A70094B1B8849
S22401334001339AB2074B1A80FB7B0133FB73FB7B9AB27B689B889A42E4D300BF1037BD467F
S22401336080BD00BF38C4FF1F80B584B000AF0346FB8000F0E7F9F860FB685B680F4A128814
S2240133801344FA88120A92B2D2B21A700B4B1B8801339AB2094B1A80FB685B68074A128868
S2240133A01344FA88D2B21A70044B1B8801339AB2024B1A8000BF1037BD4680BD38C4FF1F67
S2240133C080B584B000AF786000F0BCF9F860FB685B681E4A128813447A68120ED2B21A706B
S2240133E01A4B1B8801339AB2184B1A80FB685B68164A128813447A68120CD2B21A70134B5F
S2240134001B8801339AB2114B1A80FB685B680F4A128813447A68120AD2B21A700B4B1B8818
S22401342001339AB2094B1A80FB685B68074A128813447A68D2B21A70044B1B8801339AB24E
S224013440024B1A8000BF1037BD4680BD38C4FF1F80B400AF054B1A88054B1B88D31A9BB21D
S2240134601846BD465DF8047B704700BF38C4FF1F3AC4FF1F80B582B000AF00F063F978602B
S2240134807B685B68034A1288134418460837BD4680BD00BF3AC4FF1F80B582B000AF00F084
S2240134A051F978607B685B680A3318460837BD4680BD000080B584B000AF0346FB80032322
S2240134C0FB731F4B00221A7000F020FD0346002B0FD0FB88112B05D0FB88122B02D0FB8859
S2240134E0312B06D1012000F0EDF9164B02221A8021E0154B7F221A70144BDA7C124B5A7015
S224013500FB88DAB2104B9A70FB88222B05D1104B1A780D4BDA700423FB73FB7B9BB2FA7B2F
S22401352091B2094A1846FFF77FF80346002B03D0044B04221A8000BF00BF1037BD4680BDC9
S22401354041E9FF1F3EE9FF1F1CE9FF1F28E9FF1F8CEBFF1F80B582B000AF0346FB80FB8894
S2240135601846FFF7A7FF034B06221A8000BF0837BD4680BD24E9FF1F80B586B000AF03466F
S224013580B9607A60FB8100F0DDF87861FB89DAB2084B1A707B691A8A7B681A807B695A6880
S2240135A0BB681A60044B07221A8000BF1837BD4680BD00BF18E9FF1F24E9FF1F80B500AF1B
S2240135C0112000F07FF900BF80BD000080B586B000AF00F0B7F838611F4BFB60FB685B7CFF
S2240135E0FB723B691A68FB7A1B0113447B600123FB751A4B1B78012B09D1194B1B88002BAB
S22401360005D10023FB75154B00221A701EE0154B1B78002B1AD1144B00221A70134B082295
S2240136201A807820FFF746FF0E4B01221A707B689A880F4B1A80094B1B78002B06D1084BDC
S2240136404CF250321A80054B01221A70FB7D18461837BD4680BD00BF28E9FF1F16E9FF1F9D
S22401366014E9FF1F3CE9FF1F41E9FF1F24E9FF1F20E9FF1F80B586B000AF00F063F8F8608F
S224013680114BBB6000237B610023FB7411E0FB68DA68FB7C9B0013441B687B607B681A784A
S2240136A0BB68DB7C9A4201D17B687B61FB7C0133FB74FB68DB7EFA7C9A42E8D37B691846F8
S2240136C01837BD4680BD00BF28E9FF1F80B584B000AF00F037F8F8600C4BBB60BB681B68C0
S2240136E07B607B68002B03D07B685B68002B03D11320FFF72FFF04E07B685B68B968F86801
S224013700984700BF1037BD4680BD00BF28E9FF1F80B582B000AF0A4B7B607B681B683B6049
S2240137203B68002B07D03B689B68002B03D03B689B68984700BF00BF0837BD4680BD00BFF9
S22401374028E9FF1F80B400AF034B1B681846BD465DF8047B704700BF3CC4FF1F80B582B050
S22401376000AF7860044A7B6813607F2000F0AAF800BF0837BD4680BD3CC4FF1F80B586B020
S22401378000AF0346FB71FFF7DDFF38613B691B68FB60FB681B78FA799A4202D10023FB7527
S2240137A001E00123FB75FB7D18461837BD4680BD80B584B000AF0346FB710223FB7300F0D9
S2240137C0A5FB0346BB73FB79112B0BD0FB79102B08D0FB79222B05D0FB793E2B02D0FB7901
S2240137E02E2B0FD1FB79112B09D1244B5B7C002B05D1BB7B012B02D00423FB7321E00023CC
S224013800FB731EE0FB79272B0ED0FB79312B0BD0FB792E2B08D0FB79342B05D0FB79362BC5
S22401382002D0FB79372B0CD10423FB73134B5B7C012B06D100F06AFB0346012B01D0002372
S224013840FB730E4B1B685B787B73FB7B002B0FD10A4B1B891A467B7B01339A4203DB074B47
S2240138601B89012B04D1064B00221A700623FB73FB7B18461037BD4680BD00BF28E9FF1FC0
S22401388070E9FF1F80B483B000AF0346FB80044AFB88138000BF0C37BD465DF8047B7047DD
S2240138A024E9FF1F80B483B000AF0346FB80044AFB88138000BF0C37BD465DF8047B704709
S2240138C03EE9FF1F80B586B000AF0346FB71FFF739FF78614E4B3B613B695B7CFB737B69C5
S2240138E01A68FB7B1B011344BB60FB7903F00103002B1AD0474B1B78002B04D1BB685A8892
S224013900454B1A8003E0BB689A88434B1A807B695A8A424B1A80424B01221A70414B002250
S2240139201A70414B4CF250321A80FB7903F00203002B08D07B699B7E1846FFF71FFF0346EA
S2240139401A46334B5A74FB7903F02003002B0BD02F4B00229A742E4B00221A74334B0022B2
S2240139601A70334B00221A70FB7903F00803002B02D0274B0022DA74FB7903F00403002BA3
S2240139801DD02C4B00221A70214B00221A60204B00221A81284801F0CBF9274B1B78002B8C
S2240139A007D11B4B0122DA817B699A8A184B9A8102E0174B0022DA81164B00221A70FB797D
S2240139C003F01003002B05D01C4B01221A801C4B00221A80FB7903F04003002B0DD07B69FE
S2240139E09B6800221A707B699B68013300221A707B699B68023300221A70FB79FF2B03D111
S224013A00104B00221A7000BF00BF1837BD4680BD28E9FF1F3CE9FF1F20E9FF1F22E9FF1FCA
S224013A2041E9FF1F16E9FF1F14E9FF1F70E9FF1F56E9FF1F18E9FF1F42E9FF1F24E9FF1F99
S224013A403EE9FF1F40E9FF1F90B585B000AFFFF779FEF860584BBB60BB685B7CFB71FB685F
S224013A601A68FB791B0113443B60544B1B880A2B03D0534B1B88042B03D11020FFF722FF67
S224013A8094E0FB689C7E00F049FA03469C420DD04C4B1B78012B09D14B4B1B88002B05D08F
S224013AA0494B1B88013B9AB2474B1A80474B1B78012B09D1464B1B88002B05D0444B1B8884
S224013AC0013B9AB2424B1A803F4B1B88002B0DD13A4B1B88012B6AD1394B1B88002B66D1E3
S224013AE0FF20FFF7EFFE00F0BFFF60E0394B1B88002B1BD1384B1B78012B12D12F4B1B8850
S224013B00052B09D12D4B08221A80344B1B78002B02D17820FFF7CEFC3B689A882D4B1A801A
S224013B200AE03B685A882B4B1A8005E0294B1B88013B9AB2274B1A801F4B9B89002B06D0E1
S224013B401D4B9B89013B9AB21B4B9A8106E01A4BDB89002B02D0184B0122DA81174B1B8838
S224013B60082B06D1164B1B88022B02D10520FFF789FE124B1B88052B08D1FFF7A7FD0F4B92
S224013B801B88062B02D1144B00221A700C4B1B88022B0CD1094B1B88062B08D1FFF7B8FDBD
S224013BA0074B00221A80054B01221A8000BF00BF1437BD4690BD00BF28E9FF1F24E9FF1FB2
S224013BC03EE9FF1F41E9FF1F22E9FF1F16E9FF1F14E9FF1F20E9FF1F3CE9FF1F26E9FF1F5A
S224013BE080B582B000AF0346FB80104B00221A70FFF740FC0246F988FB881846FEF714FDFC
S224013C000346002B07D10A4B1B88022B06D0084B01221A8002E0064B04221A80054B0622DC
S224013C201A8000BF0837BD4680BD00BF41E9FF1F3EE9FF1F24E9FF1F80B485B000AF0346CE
S224013C40FB710023FB730E4B1B78012B0ED1FB79342B08D0FB79362B05D0FB79372B02D06D
S224013C60FB793E2B04D10123FB7301E00123FB73FB7B18461437BD465DF8047B704700BF1B
S224013C8070E9FF1F80B588B000AFBA607B600346FB730B46BB81FFF755FDB8610123FB775B
S224013CA0FB7B412BC0F2F280422B40F39580802B40F0EC800120FFF705FE7B4B1B88013B3D
S224013CC0082B00F2818001A252F823F0D13D0100F13C0100C93D0100C93D0100D13D01005E
S224013CE0D13D0100AD3D0100D13D01009F3D0100BB695B681B78DAB26C4BDA746B4BDA7CC1
S224013D006B4B1A70FFF7B6FC0246684B1A60674B1B68002B3FD0654BDB7C1846FFF748FD31
S224013D200346FB82FB8A002B11D0FB8A042B03D17F20FFF70FFC4EE0FB8A062B03D1132013
S224013D40FFF708FC47E01120FFF704FC43E0574BDB7C1846FFF770FF0346012B18D1534B3A
S224013D605A68524B1B685B78013313444F4A53604E4B1A894D4B1B685B789BB2D31A9BB200
S224013D80013B9AB2494B1A810520FFF77BFD22E0FFF714FC1FE01120FFF7DCFB1BE078203B
S224013DA0FFF788FB404B08221A8014E0414B1B78002B0FD03F4B1B789BB21846FFF7CAFB95
S224013DC03C4B00221A7005E00A20FFF75BFD02E000BF64E000BF62E0FEF75AFB0346002BA9
S224013DE00BD0FB7B422B08D17B6800221A800120FFF748FD0323FB7751E02F4B1B88002B1A
S224013E0003D02D4B1B88022B0ED1274B1B88012B0AD0254B1B88052B06D0284B1B78012B3C
S224013E2002D00120FFF72EFD1F4B1B88012B1FD1234B00221A70BB691B8ABA899A4211D854
S224013E407B68BA891A80BB695A68BB681A60BB681B68164A5360154ABB891381124B0222A8
S224013E601A801CE07A68B9681420FFF785FB16E00D4B1B88052B03D0104B1B78012B02D118
S224013E807B6800221A800023FB7708E00C4B01221A70FEF745FC1020FFF714FD00BFFB7F56
S224013EA018462037BD4680BD24E9FF1F28E9FF1F40E9FF1F18E9FF1F3EE9FF1F3CE9FF1FBF
S224013EC041E9FF1F80B584B000AF0346FB710123FB73FB79802B0AD10A4B1B88082B02D03E
S224013EE0094B01221A700220FFF7DCFC05E0FEF717FC1020FFF7E6FC00BFFB7B18461037FC
S224013F00BD4680BD24E9FF1F41E9FF1F80B500AFFEF7BEFA0346184680BD000080B586B008
S224013F2000AF0E4B3B61FFF70DFCF8603B695B7CFB72FB681A68FB7A1B0113447B60FB688D
S224013F40002B03D07B681B78FB7501E0FF23FB75FB7D18461837BD4680BD00BF28E9FF1FB1
S224013F6090B58BB002AF786039607B685B6801331B78DBB21B021AB27B685B6802331B7848
S224013F80DBB21BB213431BB29AB2264B1A807B68D8697B68198C234B1A8807F11704002355
S224013FA000932346FFF7BAF8B861BB69002B1DD0BB699A883B681B899A4214D1FB7D002B11
S224013FC00ED03B685B68FB603B681B893B8207F10C031946B86900F0B3FD0346FB8307E063
S224013FE03323FB8304E01323FB8301E03123FB83FB8BB3F5807F0DD1FFF766F9094B1B8845
S2240140001846FFF7B1F9FFF723FA03461846FFF7E7FD04E0FB8B1846FFF79CFA00BF24379A
S224014020BD4690BD40C4FF1F80B584B000AF786039607B685B6801331B78DBB203F07F0310
S224014040FB737B685B6801331B78DBB2DB11DBB203F00103DAB2144B1A703B681B89002B9B
S22401406003D01320FFF776FA1AE0FB7B002B03D01220FFF76FFA13E00B4B1B78002B0CD1EB
S224014080FFF722F9FB7B1846FFF726F9FFF7E0F903461846FFF7A4FD02E0FFF78FFA00BFF3
S2240140A01037BD4680BD00BF26E9FF1F80B483B000AF7860396000BF0C37BD465DF8047B27
S2240140C07047000080B586B000AF78603960FFF739FBF860FB681B7EFB720123BB757B6876
S2240140E03B61FB7AFB7516E03B69DAB20E4B1A703B691B0A3B61FB7D013B3A6813441B788B
S224014100DAB2094B1B789A4202D00023BB7505E0FB7D013BFB75FB7D002BE5D1BB7D18462D
S2240141201837BD4680BD00BF43C4FF1F80B586B000AF786039604FF48073FB827B685B6822
S22401414001331B78DBB203F07F03FB743B681B7C0133BB747B685B6801331B78DBB2DB119E
S224014160DBB203F00103DAB2994B1A70FB7C03F00103002B00F08A80964B00221A703B68F8
S2240141801B89002B02D01323FB8213E13B689B89002B06D0904B1B78002B02D13723FB82C6
S2240141A008E13B689B89002B10D17B689B7D9AB23B68DB899A4209D83623FB82864B002269
S2240141C01A707B689A8A3B689A81F3E03B689B7CFA7C9A4227D13B68FA7C1A747D4B202202
S2240141E01A707B4B1B78002B1AD1FFF76DF8FB7C1846FFF771F800233B7505E00020FFF763
S2240142006BF83B7D01333B757B68DB7D3A7D9A42F4D3FFF71DF903461846FFF7E1FCC9E0D5
S224014220FFF7CCF9C6E0FB7C112B02D01223FB82C0E007F10801FB7C684A184600F016FDB5
S2240142400346FB82FB8AB3F5807F40F0B380604B1B78002B14D13B68FA7C1A74FFF734F8EC
S224014260FB7C1846FFF738F807F108031846FFF74FF8FFF7EDF803461846FFF7B1FC99E001
S224014280FFF79CF9534B20221A7093E0FA7CBB7C9A4210D04F4B1B78202B09D1FB7C062B4D
S2240142A006D12223FB824B4B1A784D4B1A7081E02423FB827EE07B681B7E9AB23B681B8983
S2240142C09A4202D01323FB8274E03B689B89002B06D0414B1B78002B02D13723FB8269E01E
S2240142E07B689B7D9AB23B68DB899A4209D83623FB82394B00221A707B689A8A3B689A81E2
S22401430058E0364B1A683B685B6819461046FFF7D9FE03467B757B7D002B05D13B689A7C89
S2240143203B681B7C9A421FD101237B753B681A7C3B689A743B6800221A743B680022DA8100
S224014340234B1B78002B0CD1FEF7BEFFFB7C1846FEF7C2FFFFF77CF803461846FFF740FCCE
S22401436024E0FFF72BF921E03B6800221A743B68DA897B689B7D9BB29A4205D23B68DB89BD
S22401438001339AB23B68DA817B689B7D9AB23B68DB899A4207D83620FFF7DCF87B689A8A69
S2240143A03B689A8102E03520FFF7D4F87B7D184600F0A8FCFB8AB3F5807F04D0FB8A184673
S2240143C0FFF7C8F800BF00BF1837BD4680BD00BF26E9FF1F42C4FF1F42E9FF1F44C4FF1F95
S2240143E08CEBFF1F80B584B000AF786039607B685B6801331B78DBB203F07F03FB737B68D9
S2240144005B6801331B78DBB2DB11DBB203F00103DAB23A4B1A703A4B1B78012B64D1394B77
S2240144201B68002B59D13B681B89002B06D0344B00221A701320FFF78DF85CE0FB7B002BA0
S22401444009D0FB7B012B06D02D4B00221A701220FFF780F84EE02C4B1B78002B07D12B4B90
S2240144601B78002B03D12A4B1B68002B0ED0FFF7ADF80346002B3DD12420FFF76BF8254B79
S22401448000221A701E4B00221A7033E01B4B1B78012B02D1FFF792F818E0FEF715FFFB7B53
S2240144A01846FEF719FFFB7B012B09D1184BDB68DB43174AD360164BDB681846FEF780FF41
S2240144C0FEF7C6FF03461846FFF78AFB114B00221A700B4B00221A700DE0094B00221A7003
S2240144E02420FFF737F806E0054B00221A702420FFF730F800BF1037BD4680BD26E9FF1F96
S22401450070E9FF1F5CE9FF1F7CE9FF1F94EDFF1F44E9FF1F56E9FF1F90B58BB002AF7860E8
S22401452039603B681B89002B02D01323FB8338E07B685B6801331B78DBB29BB21B029AB21C
S224014540274B1A807B685B6802331B78DBB29AB2234B1B8813439AB2214B1A807B68D86925
S2240145607B68198C1E4B1A8807F10F04012300932346FEF7D3FDB861BB69002B0FD0FB7BF5
S224014580002B02D13323FB830BE007F110031946B86900F0B1FA4FF48073FB8301E0312349
S2240145A0FB83FB8BB3F5807F12D1FEF78DFE0C4B1B881846FEF7D8FE07F110031846FEF766
S2240145C0A7FEFEF745FF03461846FFF709FB04E0FB8B1846FEF7BEFF00BF2437BD4690BD72
S2240145E048C4FF1F80B483B000AF7860396000BF0C37BD465DF8047B7047000090B58DB0F2
S22401460002AF78603960002387F827307B685B6801331B78DBB203F07F0387F82030002318
S224014620BB844FF480737B84002387F821307B685B6801331B78DBB2DB11DBB203F00103A3
S224014640DAB2774B1A703B685B68BB603B681B89BB810023FB7697F82030012B06D097F874
S2240146602030022B02D012237B84A1E07B685B6802331B78DBB21B021AB27B685B68033370
S2240146801B78DBB21BB213431BB2BB847B68586A7B68198D07F11B04BA8C0023009323461B
S2240146A0FEF73CFDF861FB69002B7BD0FB7E002B75D07B685B6A0C335B88BA8C9A4202D1EB
S2240146C0012387F827307B685B6A18335B88BA8C9A4202D1022387F8273097F82030012B09
S2240146E002D0022B39D056E097F82130002B18D107F10802BB8C1146184600F029FB034627
S2240147007B847B8CB3F5007F0BD1012387F82130FEF75CFF7B689A6897F827301344012201
S2240147201A7097F82130002B3FD007F11002BB8C1146184600F094FB03467B847B8CB3F553
S224014740007F32D0002387F821307B8CB3F5807F2BD0344B00221A7027E07B689A6897F890
S224014760273013441B78DBB2012B02D024237B841DE0BB8C184600F083FB03467B847B8CC2
S224014780B3F5807F13D17B689A6897F82730134402221A700BE012237B8400BF08E033239C
S2240147A07B8405E031237B8402E000BF00E000BF7B8CB3F5807F1DD1194B1B78002B16D1D7
S2240147C0FEF782FD97F820301846FEF785FDBB8C1846FEF7C9FD07F110031846FEF798FD58
